{
    "contractName": "Loan",
    "abi": [
        {
            "inputs": [
                {
                    "internalType": "address payable",
                    "name": "_borrower",
                    "type": "address"
                },
                {
                    "internalType": "uint256",
                    "name": "_loanAmount",
                    "type": "uint256"
                },
                {
                    "internalType": "uint256",
                    "name": "_interestRate",
                    "type": "uint256"
                },
                {
                    "internalType": "uint256",
                    "name": "_duration",
                    "type": "uint256"
                },
                {
                    "internalType": "uint256",
                    "name": "_penaltyRate",
                    "type": "uint256"
                }
            ],
            "stateMutability": "nonpayable",
            "type": "constructor"
        },
        {
            "inputs": [],
            "name": "borrower",
            "outputs": [
                {
                    "internalType": "address payable",
                    "name": "",
                    "type": "address"
                }
            ],
            "stateMutability": "view",
            "type": "function"
        },
        {
            "inputs": [],
            "name": "cancel",
            "outputs": [],
            "stateMutability": "nonpayable",
            "type": "function"
        },
        {
            "inputs": [],
            "name": "completed",
            "outputs": [
                {
                    "internalType": "bool",
                    "name": "",
                    "type": "bool"
                }
            ],
            "stateMutability": "view",
            "type": "function"
        },
        {
            "inputs": [],
            "name": "duration",
            "outputs": [
                {
                    "internalType": "uint256",
                    "name": "",
                    "type": "uint256"
                }
            ],
            "stateMutability": "view",
            "type": "function"
        },
        {
            "inputs": [],
            "name": "endTime",
            "outputs": [
                {
                    "internalType": "uint256",
                    "name": "",
                    "type": "uint256"
                }
            ],
            "stateMutability": "view",
            "type": "function"
        },
        {
            "inputs": [],
            "name": "fund",
            "outputs": [],
            "stateMutability": "payable",
            "type": "function"
        },
        {
            "inputs": [],
            "name": "interestRate",
            "outputs": [
                {
                    "internalType": "uint256",
                    "name": "",
                    "type": "uint256"
                }
            ],
            "stateMutability": "view",
            "type": "function"
        },
        {
            "inputs": [],
            "name": "isComplete",
            "outputs": [
                {
                    "internalType": "bool",
                    "name": "",
                    "type": "bool"
                }
            ],
            "stateMutability": "view",
            "type": "function"
        },
        {
            "inputs": [],
            "name": "lender",
            "outputs": [
                {
                    "internalType": "address payable",
                    "name": "",
                    "type": "address"
                }
            ],
            "stateMutability": "view",
            "type": "function"
        },
        {
            "inputs": [],
            "name": "loanAmount",
            "outputs": [
                {
                    "internalType": "uint256",
                    "name": "",
                    "type": "uint256"
                }
            ],
            "stateMutability": "view",
            "type": "function"
        },
        {
            "inputs": [],
            "name": "penaltyRate",
            "outputs": [
                {
                    "internalType": "uint256",
                    "name": "",
                    "type": "uint256"
                }
            ],
            "stateMutability": "view",
            "type": "function"
        },
        {
            "inputs": [],
            "name": "repay",
            "outputs": [],
            "stateMutability": "payable",
            "type": "function"
        },
        {
            "inputs": [],
            "name": "startTime",
            "outputs": [
                {
                    "internalType": "uint256",
                    "name": "",
                    "type": "uint256"
                }
            ],
            "stateMutability": "view",
            "type": "function"
        },
        {
            "inputs": [],
            "name": "totalAmount",
            "outputs": [
                {
                    "internalType": "uint256",
                    "name": "",
                    "type": "uint256"
                }
            ],
            "stateMutability": "view",
            "type": "function"
        }
    ],
    "bytecode": "608060405234801561001057600080fd5b5060405161076a38038061076a83398101604081905261002f91610064565b600080546001600160a01b0319166001600160a01b0396909616959095179094556002929092556003556004556007556100b9565b600080600080600060a0868803121561007c57600080fd5b85516001600160a01b038116811461009357600080fd5b602087015160408801516060890151608090990151929a91995097965090945092505050565b6106a2806100c86000396000f3fe6080604052600436106100dd5760003560e01c80639d585f7f1161007f578063b60d428811610059578063b60d4288146101f9578063bcead63e14610201578063d6b7494f14610221578063ea8a1af01461023757600080fd5b80639d585f7f146101a45780639d9a7fe9146101ba578063b2fa1c9e146101e457600080fd5b8063402d8883116100bb578063402d88831461013657806378e97925146101405780637c3a00fd146101565780637df1f1b91461016c57600080fd5b80630fb5a6b4146100e25780631a39d8ef1461010b5780633197cbb614610120575b600080fd5b3480156100ee57600080fd5b506100f860045481565b6040519081526020015b60405180910390f35b34801561011757600080fd5b506100f861024c565b34801561012c57600080fd5b506100f860065481565b61013e6102ef565b005b34801561014c57600080fd5b506100f860055481565b34801561016257600080fd5b506100f860035481565b34801561017857600080fd5b5060005461018c906001600160a01b031681565b6040516001600160a01b039091168152602001610102565b3480156101b057600080fd5b506100f860025481565b3480156101c657600080fd5b506008546101d49060ff1681565b6040519015158152602001610102565b3480156101f057600080fd5b506101d46103ee565b61013e610414565b34801561020d57600080fd5b5060015461018c906001600160a01b031681565b34801561022d57600080fd5b506100f860075481565b34801561024357600080fd5b5061013e61053b565b60008060646003546002546102619190610607565b61026b9190610624565b905060006006544211156102cf576000600654426102899190610646565b905062015180606460075483866002546102a39190610659565b6102ad9190610607565b6102b79190610607565b6102c19190610624565b6102cb9190610624565b9150505b80826002546102de9190610659565b6102e89190610659565b9250505090565b6000546001600160a01b0316331461034e5760405162461bcd60e51b815260206004820152601c60248201527f4f6e6c7920626f72726f7765722063616e207265706179206c6f616e0000000060448201526064015b60405180910390fd5b61035661024c565b34146103a45760405162461bcd60e51b815260206004820152601a60248201527f496e636f72726563742072657061796d656e7420616d6f756e740000000000006044820152606401610345565b6008805460ff19166001908117909155546040516001600160a01b03909116904780156108fc02916000818181858888f193505050501580156103eb573d6000803e3d6000fd5b50565b60085460009060ff168061040f57506006544211801561040f575060065415155b905090565b6000546001600160a01b0316330361047a5760405162461bcd60e51b815260206004820152602360248201527f426f72726f7765722063616e6e6f742066756e64207468656972206f776e206c60448201526237b0b760e91b6064820152608401610345565b60025434146104c35760405162461bcd60e51b8152602060048201526015602482015274125b98dbdc9c9958dd081b1bd85b88185b5bdd5b9d605a1b6044820152606401610345565b6001546001600160a01b0316156105125760405162461bcd60e51b8152602060048201526013602482015272131bd85b88185b1c9958591e48199d5b991959606a1b6044820152606401610345565b600180546001600160a01b0319163317905542600581905560045461053691610659565b600655565b6000546001600160a01b031633146105955760405162461bcd60e51b815260206004820152601d60248201527f4f6e6c7920626f72726f7765722063616e2063616e63656c206c6f616e0000006044820152606401610345565b61059d6103ee565b156105e35760405162461bcd60e51b8152602060048201526016602482015275131bd85b88185b1c9958591e4818dbdb5c1b195d195960521b6044820152606401610345565b6000546001600160a01b0316ff5b634e487b7160e01b600052601160045260246000fd5b808202811582820484141761061e5761061e6105f1565b92915050565b60008261064157634e487b7160e01b600052601260045260246000fd5b500490565b8181038181111561061e5761061e6105f1565b8082018082111561061e5761061e6105f156fea26469706673582212209ef08b92809039b013f9fc29ae40cf77c760594a2f65be1af832580337d14edc64736f6c63430008110033",
    "sourcePath": "c:/Users/jonat/Music/Desktop/New folder/final-year/contracts/Loan.sol",
    "compiler": {
        "name": "solc",
        "version": "0.8.17+commit.8df45f5f"
    },
    "functionHashes": {
        "borrower()": "7df1f1b9",
        "cancel()": "ea8a1af0",
        "completed()": "9d9a7fe9",
        "duration()": "0fb5a6b4",
        "endTime()": "3197cbb6",
        "fund()": "b60d4288",
        "interestRate()": "7c3a00fd",
        "isComplete()": "b2fa1c9e",
        "lender()": "bcead63e",
        "loanAmount()": "9d585f7f",
        "penaltyRate()": "d6b7494f",
        "repay()": "402d8883",
        "startTime()": "78e97925",
        "totalAmount()": "1a39d8ef"
    },
    "gasEstimates": {
        "creation": {
            "codeDepositCost": "339600",
            "executionCost": "infinite",
            "totalCost": "infinite"
        },
        "external": {
            "borrower()": "2426",
            "cancel()": "38505",
            "completed()": "2355",
            "duration()": "2308",
            "endTime()": "2352",
            "fund()": "77166",
            "interestRate()": "2351",
            "isComplete()": "6654",
            "lender()": "2381",
            "loanAmount()": "2307",
            "penaltyRate()": "2350",
            "repay()": "infinite",
            "startTime()": "2329",
            "totalAmount()": "infinite"
        }
    }
}